:100000000C94A5120C94C2120C94C2120C94C2123D
:100010000C94C2120C94C2120C94C2120C94C21210
:100020000C94C2120C94D7140C94C2120C94C212E9
:100030000C94C2120C94C2120C94C2120C94C212F0
:100040000C94C2120C94C2120C94C2120C94C212E0
:100050000C94C21274696D652D7472617000000099
:10006000000000000000000074686973207761736D
:10007000206A757374206120747279203200036FD6
:100080000020035C6974682074686500001100300A
:10009000000100106E6F697365747261636B657245
:1000A00020776869636820697300001100300001DF
:1000B000001073686F72746572207468616E20310D
:1000C00030206B62202E00000069003000290040C3
:1000D000746869732069732073686F727465722025
:1000E000627574200000006A004000000001736F18
:1000F000756E6473206C696B652073686974202E5B
:100100000000000000580040000000017369676EA5
:1001100065643A00000000000000000000000000DC
:100120000000000000000000000174686520617696
:10013000617461722F7A796C6F6E2F61666C2E001C
:1001400000000000000000010000000000000000AE
:10015000000000000000000000000000000000009F
:10016000000000000001000000000000000000008E
:10017000000000000000000000000000000000007F
:10018000000000010000000000000000000000006E
:10019000000000000000000000000000000000005F
:1001A000000100000000000000000000000000004E
:1001B000000000000000000000000000000000013E
:1001C000000000000000000000000000000000002F
:1001D000000000000000000000000000000100001E
:1001E000000000000000000000000000000000000F
:1001F00000000000000000000000000100000000FE
:1002000000000000000000000000000000000000EE
:1002100000000000000000000001000000000000DD
:1002200000000000000000000000000000000000CE
:1002300000000000000000010000000000000000BD
:1002400000000000000000000000000000000000AE
:10025000000000000001000000000000000000009D
:10026000000000000000000000000000000000008E
:10027000000000010000000000000000000000007D
:10028000000000000000000000000000000000006E
:10029000000100000000000000000000000000005D
:1002A000000000000000000000000000000000014D
:1002B000000000000000000000000000000000003E
:1002C000000000000000000000000000000100002D
:1002D000000000000000000000000000000000001E
:1002E000000000000000000000000001000000000D
:1002F00000000000000000000000000000000000FE
:1003000000000000000000000001000000000000EC
:1003100000000000000000000000000000000000DD
:1003200000000000000000010000000000000000CC
:1003300000000000000000000000000000000000BD
:1003400000000000000100000000000000000000AC
:10035000000000000000000000000000000000009D
:10036000000000010000000000000000000000008C
:10037000000000000000000000000000000000007D
:10038000000100000000000000000000000000006C
:10039000000000000000000000000000000000015C
:1003A000000000000000000000000000000000004D
:1003B000000000000000000000000000000100003C
:1003C000000000000000000000000000000000002D
:1003D000000000000000000000000001000000001C
:1003E000000000000000000000000000000000000D
:1003F00000000000000000000001080000010202EF
:1004000003040500000000000000000000000000E0
:1004100000000000000000000000000000000000DC
:1004200000000000000000000000000000000000CC
:1004300000000000000000000000000000000000BC
:1004400000000000000000000000000000000000AC
:10045000000000000000000000000000000000009C
:10046000000000000000000000000000000000008C
:100470000000000000000000000000004D2E4B2E88
:1004800002FA60000153400001532C02011D1C05BB
:10049000000000000000000000E22C0400000C102E
:1004A00002FA60000153400000AA2C0600000C155F
:1004B000000000000000000001532C0800000C1890
:1004C0000153500000000C0000E22C0A00000C2038
:1004D000000000000000000000AA2C0C0000020137
:1004E0000000000000BE400001532C0E000001017E
:1004F00002FA600000AA400000E22C100000020195
:10050000000000000153400001532C1200000101C3
:10051000015350000000000000E22C140000020112
:1005200002FA60000153400000AA2C1600000101ED
:10053000000000000000000001532C180000020120
:100540000153500000000C0000E22C1A00000101D1
:10055000000000000000000000AA2C1C00000201A6
:10056000000000000000000001532C1E00000101EB
:10057000015350000000000000E22C2000000201A6
:1005800002FA60000153400001532C2200000101D7
:10059000000000000000000000E22C240000020126
:1005A00002FA60000153400000AA2C26000001015D
:1005B000000000000000000001532C280000020190
:1005C0000153500000000C0000E22C2A0000010141
:1005D000000000000000000000AA2C2C0000020116
:1005E0000000000000BE400001532C2E000001015D
:1005F00002FA600000AA400000E22C300000020174
:10060000000000000153400001532C3200000101A2
:10061000015350000000000000E22C3400000201F1
:1006200002FA60000153400000AA2C3600000101CC
:10063000000000000000000001532C3800000201FF
:100640000153500000000C0000E22C3A00000101B0
:10065000000000000000000000AA2C3C0000020185
:10066000015350000000000001532C3E0000010126
:10067000000000000000000000E22C400000020129
:1006800002FA60000153400001532C4000000101B8
:10069000000000000000000000E22C400000020109
:1006A00002FA60000153400000AA2C400000010142
:1006B000000000000000000001532C400000020177
:1006C0000153500000000C0000E22C40000001012A
:1006D000000000000000000000AA2C400000020101
:1006E0000000000000BE400001532C40000001014A
:1006F00002FA600000AA400000E22C400000020163
:10070000000000000153400001532C400000010193
:10071000015350000000000000E22C4000000201E4
:1007200002FA60000153400000AA2C4000000101C1
:10073000000000000000000001532C4000000201F6
:100740000153500000000C0000E22C4000000101A9
:10075000000000000000000000AA2C400000020180
:10076000000000000000000001532C4000000101C7
:10077000015350000000000000E22C400000020184
:1007800002FA60000153400001532C4000000101B7
:10079000000000000000000000E22C370000020111
:1007A00002FA60000153400000AA2C35000001014C
:1007B000000000000000000001532C320000020184
:1007C0000153500000000C0000E22C300000010139
:1007D000000000000000000000AA2C270000020119
:1007E00002FA600000BE400001532C250000010108
:1007F00002FA600000AA400000E22C220000020180
:10080000000000000153400001532C2000000101B2
:10081000015350000000000000E22C17000002010C
:1008200002FA60000153400000AA2C1500000101EB
:10083000000000000000000001532C120000020123
:100840000153500000000C0000E22C1000000201D7
:10085000000000000000000000AA2C0700000201B8
:10086000015350000000000001532C05000002015C
:10087000000000000000000000E22C020000020165
:1008800002FA6000017D4000017D2C0201401C2025
:10089000000000000000000000FE2C040000020127
:1008A00002FA6000017D400000BE2C06000001013C
:1008B0000000000000000000017D2C080000020183
:1008C0000153500000000C0000FE2C0A0000010142
:1008D000000000000000000000BE2C0C000002011F
:1008E0000000000000D64000017D2C0E0000010138
:1008F00002FA600000BE400000FE2C100000020161
:1009000000000000017D4000017D2C12000001016B
:10091000015350000000000000FE2C1400000201F2
:1009200002FA6000017D400000BE2C1600000101AB
:100930000000000000000000017D2C1800000201F2
:100940000153500000000C0000FE2C1A00000101B1
:10095000000000000000000000BE2C1C000002018E
:100960000000000000000000017D2C1E00000101BD
:10097000015350000000000000FE2C200000020186
:1009800002FA6000017D4000017D2C22000001017F
:10099000000000000000000000FE2C240000020106
:1009A00002FA6000017D400000BE2C26000001011B
:1009B0000000000000000000017D2C280000020162
:1009C0000153500000000C0000FE2C2A0000010121
:1009D000000000000000000000BE2C2C00000201FE
:1009E0000000000000D64000017D2C2E0000010117
:1009F00002FA600000BE400000FE2C300000020140
:100A000000000000017D4000017D2C32000001014A
:100A1000015350000000000000FE2C3400000201D1
:100A200002FA6000017D400000BE2C36000001018A
:100A30000000000000000000017D2C3800000201D1
:100A40000153500000000C0000FE2C3A0000010190
:100A5000000000000000000000BE2C3C000002016D
:100A60000153500000000000017D2C3E00000101F8
:100A7000000000000000000000FE2C400000020109
:100A800002FA6000017D4000017D2C400000010160
:100A9000000000000000000000FE2C4000000201E9
:100AA00002FA6000017D400000BE2C400000010100
:100AB0000000000000000000017D2C400000020149
:100AC0000153500000000C0000FE2C40000001010A
:100AD000000000000000000000BE2C4000000201E9
:100AE0000000000000D64000017D2C400000010104
:100AF00002FA600000BE400000FE2C40000002012F
:100B000000000000017D4000017D2C40000001013B
:100B1000015350000000000000FE2C4000000201C4
:100B200002FA6000017D400000BE2C40000001017F
:100B30000000000000000000017D2C4000000201C8
:100B40000153500000000C0000FE2C400000010189
:100B5000000000000000000000BE2C400000020168
:100B60000000000000000000017D2C400000010199
:100B7000015350000000000000FE2C400000020164
:100B800002FA6000017D4000017D2C40000001015F
:100B9000000000000000000000FE2C3700000201F1
:100BA00002FA6000017D400000BE2C35000001010A
:100BB0000000000000000000017D2C320000020156
:100BC0000153500000000C0000FE2C300000010119
:100BD000000000000000000000BE2C270000020101
:100BE00002FA600000D64000017D2C2500000101C2
:100BF00002FA600000BE400000FE2C22000002014C
:100C000000000000017D4000017D2C20000001015A
:100C1000015350000000000000FE2C1700000201EC
:100C200002FA6000017D400000BE2C1500000101A9
:100C30000000000000000000017D2C1200000201F5
:100C40000153500000000C0000FE2C1000000201B7
:100C5000000000000000000000BE2C0700000201A0
:100C60000153500000000000017D2C05000002012E
:100C7000000000000000000000FE2C020000020145
:100C800002FA600001AC400001AC2C0201681C209B
:100C90000000000000000000011D2C040000020103
:100CA00002FA600001AC400000D62C0600000101F1
:100CB000000000000000000001AC2C080000020150
:100CC0000153500000000C00011D2C0A000001011E
:100CD000000000000000000000D62C0C0000020103
:100CE0000000000000E2400001AC2C0E00000101F9
:100CF00002FA600000D64000011D2C100000020125
:100D00000000000001AC400001AC2C120000010109
:100D10000153500000000000011D2C1400000201CE
:100D200002FA600001AC400000D62C160000010160
:100D3000000000000000000001AC2C1800000201BF
:100D40000153500000000C00011D2C1A000001018D
:100D5000000000000000000000D62C1C0000020172
:100D6000000000000000000001AC2C1E000001018A
:100D70000153500000000000011D2C200000020162
:100D800002FA600001AC400001AC2C22000001011D
:100D90000000000000000000011D2C2400000201E2
:100DA00002FA600001AC400000D62C2600000101D0
:100DB000000000000000000001AC2C28000002012F
:100DC0000153500000000C00011D2C2A00000101FD
:100DD000000000000000000000D62C2C00000201E2
:100DE0000000000000E2400001AC2C2E00000101D8
:100DF00002FA600000D64000011D2C300000020104
:100E00000000000001AC400001AC2C3200000101E8
:100E10000153500000000000011D2C3400000201AD
:100E200002FA600001AC400000D62C36000001013F
:100E3000000000000000000001AC2C38000002019E
:100E40000153500000000C00011D2C3A000001016C
:100E5000000000000000000000D62C3C0000010152
:100E6000015350000000000001AC2C3E00000101C5
:100E70000000000000000000011D2C4000000101E6
:100E800002FA6000017D4000017D2C4001401C20E1
:100E9000000000000000000000FE2C4000000201E5
:100EA00002FA6000017D400000BE2C4000000101FC
:100EB0000000000000000000017D2C400000020145
:100EC0000153500000000C0000FE2C400000010106
:100ED000000000000000000000BE2C4000000201E5
:100EE0000000000000D64000017D2C400000010100
:100EF00002FA600000BE400000FE2C40000002012B
:100F000000000000017D4000017D2C400000010137
:100F1000015350000000000000FE2C4000000201C0
:100F200002FA6000017D400000BE2C40000001017B
:100F30000000000000000000017D2C4000000201C4
:100F40000153500000000C0000FE2C400000010185
:100F5000000000000000000000BE2C400000020164
:100F60000000000000000000017D2C400000010195
:100F7000015350000000000000FE2C400000020160
:100F800002FA6000017D4000017D2C40000001015B
:100F9000000000000000000000FE2C3700000201ED
:100FA00002FA6000017D400000BE2C350000010106
:100FB0000000000000000000017D2C320000020152
:100FC0000153500000000C0000FE2C300000010115
:100FD000000000000000000000BE2C2700000201FD
:100FE00002FA600000D64000017D2C2500000101BE
:100FF00002FA600000BE400000FE2C220000020148
:1010000000000000017D4000017D2C200000010156
:10101000015350000000000000FE2C1700000201E8
:1010200002FA6000017D400000BE2C1500000101A5
:101030000000000000000000017D2C1200000201F1
:101040000153500000000C0000FE2C1000000201B3
:10105000000000000000000000BE2C07000002019C
:101060000153500000000000017D2C05000002012A
:10107000000000000000000000FE2C020000020141
:1010800002FA600001AC400001AC2C0201681C2097
:101090000000000000000000011D2C0400000201FF
:1010A00002FA600001AC400000D62C0600000101ED
:1010B000000000000000000001AC2C08000002014C
:1010C0000153500000000C00011D2C0A000001011A
:1010D000000000000000000000D62C0C00000201FF
:1010E0000000000000E2400001AC2C0E00000101F5
:1010F00002FA600000D64000011D2C100000020121
:101100000000000001AC400001AC2C120000010105
:101110000153500000000000011D2C1400000201CA
:1011200002FA600001AC400000D62C16000001015C
:10113000000000000000000001AC2C1800000201BB
:101140000153500000000C00011D2C1A0000010189
:10115000000000000000000000D62C1C000002016E
:10116000000000000000000001AC2C1E0000010186
:101170000153500000000000011D2C20000002015E
:1011800002FA600001AC400001AC2C220000010119
:101190000000000000000000011D2C2400000201DE
:1011A00002FA600001AC400000D62C2600000101CC
:1011B000000000000000000001AC2C28000002012B
:1011C0000153500000000C00011D2C2A00000101F9
:1011D000000000000000000000D62C2C00000201DE
:1011E0000000000000E2400001AC2C2E00000101D4
:1011F00002FA600000D64000011D2C300000020100
:101200000000000001AC400001AC2C3200000101E4
:101210000153500000000000011D2C3400000201A9
:1012200002FA600001AC400000D62C36000001013B
:10123000000000000000000001AC2C38000002019A
:101240000153500000000C00011D2C3A0000010168
:10125000000000000000000000D62C3C000002014D
:10126000015350000000000001AC2C3E00000101C1
:101270000000000000000000011D2C4000000201E1
:1012800002FA600001AC400001AC2C4000000101FA
:101290000000000000000000011D2C4000000201C1
:1012A00002FA600001AC400000D62C4000000101B1
:1012B000000000000000000001AC2C400000020112
:1012C0000153500000000C00011D2C4000000101E2
:1012D000000000000000000000D62C4000000201C9
:1012E0000000000000E2400001AC2C4000000101C1
:1012F00002FA600000D64000011D2C4000000201EF
:101300000000000001AC400001AC2C4000000101D5
:101310000153500000000000011D2C40000002019C
:1013200002FA600001AC400000D62C400000010130
:10133000000000000000000001AC2C400000020191
:101340000153500000000C00011D2C400000010161
:10135000000000000000000000D62C400000020148
:10136000000000000000000001AC2C400000010162
:101370000153500000000000011D2C40000002013C
:1013800002FA600001AC400001AC2C4002A65C05F2
:101390000000000000000000011D2C3702A65C07C1
:1013A00002FA600001AC400000D62C3502A65C10A9
:1013B000000000000000000001AC2C3202A65C120C
:1013C0000153500000000C00011D2C3002A65C15DA
:1013D000000000000000000000D62C2702A65C17C9
:1013E00002FA600000E2400001AC2C2502A65C205D
:1013F00002FA600000D64000011D2C2202A65C22E9
:101400000000000001AC400001AC2C2002A65C25CD
:101410000153500000000000011D2C1702A65C279C
:1014200002FA600001AC400000D62C1502A65C3028
:10143000000000000000000001AC2C1202A65C328B
:101440000153500000000C00011D2C1002A65C3559
:10145000000000000000000000D62C0702A65C3748
:10146000015350000000000001AC2C0502A65C40B6
:101470000000000000000000011D2C0202A65C40DC
:1014800002FA60000153400001532C020153300066
:10149000000000000000000000E22C0400AA3C054F
:1014A00002FA60000153400000AA2C0601533C10D0
:1014B000000000000000000001532C0800AA3C05B9
:1014C0000153500000000C0000E22C0A00AA30007A
:1014D0000000000001534C1000AA2C0C01533C05E5
:1014E00001535C2000AA400000E22C1001533C058F
:1014F000000000000153400001532C1200BE3000D8
:10150000015350000000000000E22C1400AA3C052A
:1015100002FA60000153400000AA2C1600BE3C10E5
:10152000000000000000000001532C1801533C058E
:101530000153500000000C0000E22C1A00AA3000F9
:101540000000000001534C1000AA2C1C00BE3C05FA
:1015500001535C2001534C0500E22C2000AA3C05FD
:1015600002FA60000153400001532C2200AA3C10F3
:10157000000000000000000000E22C2400E23C0318
:1015800002FA60000153400000AA2C2600E230005D
:10159000000000000000000001532C2800AA3C05B8
:1015A0000153500000000C0000E22C2A00BE300065
:1015B0000000000001534C1000AA2C2C00E23C0556
:1015C00001535C2000AA400000E22C3000BE3C0524
:1015D000000000000153400001532C3200E23C1097
:1015E000015350000000000000E22C3400BE3C0318
:1015F00002FA60000153400000AA2C3600E23000DD
:10160000000000000000000001532C3800BE3C0523
:101610000153500000000C0000E22C3A00BE3000E4
:101620000000000001534C1000AA2C3C00E23C05D5
:10163000015350000000000001532C3E00AA30006E
:101640000000000001534C0500E22C4000BE3C05A8
:1016500002FA60000153400001532C40008F30001B
:10166000000000000000000000E22C4000AA3C0541
:1016700002FA60000153400000AA2C4000E23C1036
:10168000000000000000000001532C4000973000D3
:101690000153500000000C0000E22C40008F3C057C
:1016A0000000000001534C1000AA2C4000973C1091
:1016B00001535C2000AA400000E22C4000973C054A
:1016C000000000000153400001532C4000AA3C10D0
:1016D000015350000000000000E22C4000973C0342
:1016E00002FA60000153400000AA2C4000BE300006
:1016F000000000000000000001532C4000AA3C053F
:101700000153500000000C0000E22C4000BE3C10D1
:101710000000000001534C1000AA2C4000AA3C031A
:1017200001535C2001534C0500E22C4000AA3C010F
:1017300002FA60000153400001532C4000E23000E7
:10174000000000000000000000E22C3700BE3C0555
:1017500002FA60000153400000AA2C3500E23C1060
:10176000000000000000000001532C3200BE3C04C9
:101770000153500000000C0000E22C3000E23C0558
:101780000000000001534C1000AA2C2700BE3C03AF
:1017900002FA600000BE400001532C2500E23C0428
:1017A00002FA600000AA400000E22C2200BE3C02C7
:1017B000000000000153400001532C2000E23C03D4
:1017C000015350000000000000E22C1700BE3C0155
:1017D00002FA60000153400000AA2C1500E23C020E
:1017E000000000000000000001532C120000000067
:1017F0000153500000000C0000E22C1000E23C01FC
:101800000000000001534C1000AA2C07000000004B
:10181000015350000000000001532C05000000009F
:101820000000000001534C0500E22C020000000003
:1018300002FA60000153400001532C0201533000B2
:10184000000000000000000000E22C0400AA3C059B
:1018500002FA60000153400000AA2C0601533C101C
:10186000000000000000000001532C0800AA3C0307
:101870000153500000000C0000E22C0A00AA3000C6
:101880000000000001534C1000AA2C0C01533C0531
:1018900001535C2000AA400000E22C1001533C03DD
:1018A000000000000153400001532C1200BE300024
:1018B000015350000000000000E22C1400AA3C0577
:1018C00002FA60000153400000AA2C1600BE3C1032
:1018D000000000000000000001532C1800AA3C0387
:1018E0000153500000000C0000E22C1A00BE300032
:1018F0000000000001534C1000AA2C1C00AA3C055B
:1019000001535C2001534C0500E22C2000BE3C0535
:1019100002FA60000153400001532C2200BE3C102B
:10192000000000000000000000E22C24008F3C03B7
:1019300002FA60000153400000AA2C2600973000F4
:10194000000000000000000001532C28008F3C051F
:101950000153500000000C0000E22C2A00973C10BC
:101960000000000001534C1000AA2C2C008F3C03F7
:1019700001535C2000AA400000E22C3000973C0597
:10198000000000000153400001532C3200AA3C101B
:10199000015350000000000000E22C3400973C038B
:1019A00002FA60000153400000AA2C3600BE30004D
:1019B000000000000000000001532C3800AA3C0584
:1019C0000153500000000C0000E22C3A00BE3C1015
:1019D0000000000001534C1000AA2C3C00AA3C035C
:1019E000015350000000000001532C3E00BE3C0596
:1019F0000000000001534C0500E22C4000AA3C010D
:101A000002FA60000153400001532C4000E2300014
:101A1000000000000000000000E22C4000BE3C0579
:101A200002FA60000153400000AA2C4000E23C1082
:101A3000000000000000000001532C4000BE3000F8
:101A40000153500000000C0000E22C4000E23C0575
:101A50000000000001534C1000AA2C4000BE3C10B6
:101A600001535C2000AA400000E22C4000BE3C056F
:101A7000000000000153400001532C4000E23C10E4
:101A8000015350000000000000E22C4000BE3C0367
:101A900002FA60000153400000AA2C4000BE300052
:101AA000000000000000000001532C4000E23C0553
:101AB0000153500000000C0000E22C4000E2300016
:101AC0000000000001534C1000AA2C4000BE3C0551
:101AD00001535C2001534C0500E22C4000E23C0520
:101AE00002FA60000153400001532C4000E23A0F1B
:101AF000000000000000000000E22C3700BE3A0F9A
:101B000002FA60000153400000AA2C3500E23A0FAF
:101B1000000000000000000001532C3200BE3A0F0C
:101B20000153500000000C0000E22C3000E23A0F9C
:101B30000000000001534C1000AA2C2700BE3A0FF1
:101B400002FA600000BE400001532C2500E23A0F6B
:101B500002FA600000AA400000E22C2200BE3A0F08
:101B6000000000000153400001532C20008F3A0F69
:101B7000015350000000000000E22C1700973A04C7
:101B800002FA60000153400000AA2C1500AA3A0393
:101B9000000000000000000001532C1200BE3A02B9
:101BA0000153500000000C0000E22C1000AA3A0F74
:101BB0000000000001534C1000AA2C0700BE3A049C
:101BC000015350000000000001532C0500E23A03CD
:101BD0000000000001534C0500E22C0200FE3A0216
:101BE00000000000150B0909FE0F5F7466585020B5
:101BF000C8AFAEB1ADB7FF110104F8C5CDD7DFE76F
:101C0000EFF70105070F1217151213110B0A050F35
:101C10005F7066584C28D0B4B0B2B2B1EB1904036F
:101C200004D0C7D7DCE7EFF3FF05070D1313161336
:101C300011130D07050F5B70645A4E2CD0B5B3B06D
:101C4000B1B2D31C0AFF06E0BFD3DDE1EDF1F70529
:101C500008091013111313100F06030F5774645D56
:101C60005030D2B3B4B0B0B3BF0F10FD01F0C0CE4E
:101C7000DBDFE7F2F5FF09050B13131113100C0B53
:101C8000030F5776685A5230E0B3B3B3B1B3B9FB20
:101C90001203FF00CAC9D9E0E7EFF7FB060B0912F0
:101CA000151113140F0B080B5374695C5038E0B80E
:101CB000B4B5B4B2B8E718080101D8C7D5DFE6ED6E
:101CC000F6FD030A0B0D16141013110B080D4F74BB
:101CD000685E5040E4B9B8B4B5B4B3D5150B000391
:101CE000E0C4D1DBE4EBF2FB0007090D1115101184
:101CF000110C070B4B77685F5440E8B9B8B5B4B620
:101D0000B4BF07100002F0C4D0DBE0EBEFF7FF0533
:101D1000090B0F13130F111008094778695E54401F
:101D2000F0B9BBB9B5B5B7B9F71603FF00CCCDDB39
:101D3000DFE7F1F5FF07080B0F13151210100C0960
:101D400047756C60544400C0B9B9B8B6B9B8DF186B
:101D500009FE04DAC7D7E0E5EFF5FA0509090F1324
:101D60001311110F0E0B3F756C62544400C1BDB9C5
:101D7000BAB8B7B9CF130D0101E8C5D3E0E3EBF56D
:101D8000F9FF090A0B13131111100D0B3F756C624B
:101D9000584800C2C0BCB9BAB8B9C5FF110300F4B5
:101DA000CAD1DDE5E8F1F7FE070B0A0E1411111197
:101DB0000D0B3F756D62584A04C4C1C0BAB9B9B9B8
:101DC000BDF714050000D4CFDBE2EAEFF7FD040A0B
:101DD0000C0D13151010100D3F717064584C08C88D
:101DE000C2C0BDBBBBBCBBDF19090103E0CBDAE15C
:101DF000E8EFF5FB03090D0D1114130F110F3B72E2
:101E00006D65584C10D0C5C0C0BCBBBCBDCF131055
:101E10000003EAC9D7E2E7EEF5F901090B0D10134B
:101E200013100E1037716E655C5014D0C8C3C0BF5C
:101E3000BBBCBDC5FF140300F8CED3DFE4EBF3F762
:101E4000FE070A0B0F1113110E0E376F70655C50F1
:101E500018D2C8C6C1BDBFBCBDC1EF16080000D9AD
:101E6000CFDDE5E9F3F7FB030B0B0D131213100F96
:101E7000356D70645C5220D8CAC9C4C1C0BFBDC131
:101E8000DF170D0102E4CDD9E5E9EFF7FB020B0DF9
:101E90000C111411110F2F6B70685C5220DCCDC82F
:101EA000C6C2C0C0C0BFD30D100401F0CED7E2E956
:101EB000EFF4FBFF070D0D0E141310102F6B70685D
:101EC000605224E0D0C9C7C5C0C0C0C0C7FF140558
:101ED00002FAD4D5E0E6EEF3F9FF050B0D0D111370
:101EE000110F2D677268605528E2D0CDC7C6C4C0F7
:101EF000C1C2C3EF18090001DCD3DFE5EBF3F7FD46
:101F0000050A0D0E1015120F276374685E5830E62F
:101F1000D2CFCBC7C5C4C1C3C3DF15100303E8CEFE
:101F2000DBE5EAF3F8FB030A0C0F0F131511275F2B
:101F300072695E5630EAD4D0CDC9C6C5C3C2C5D316
:101F40000B130501F4D2D7E5E9EFF7FAFF070D0D02
:101F50000F111212235F736A615832F0D7D1CDCBC3
:101F6000C8C5C4C3C3CBFB160900FCD8D5E1E9ED55
:101F7000F5FBFD050B0D0D111311235B7469625800
:101F800038F4D6D4CECCC9C6C5C4C4C6EF150B032D
:101F900000E2D3DFE7EDF3FAFF010B0F0D0F131390
:101FA0001F57736C60593800D9D5D3CDCBC9C6C67D
:101FB000C5C5DF13100503EAD2DDE6EDF3F7FD0238
:101FC000070F0F0F13141F57716B62594000DAD7B8
:101FD000D3D0CBCBC8C6C7C6D307130603F6D4DB12
:101FE000E5EAF1F7FB00070B0F0D10131F53706CA0
:101FF00064594000DDD8D4D1CDCAC9C7C5C7CBF715
:1020000016090100DCD6E3E9EFF7FBFF040B0D0F27
:102010000F121F4F7169645A4000DDDBD5D3CFCB5F
:10202000CACAC7C6CAE7160E0301E8D3DFE9EDF353
:10203000FBFD03090D0D0F111F4F706A625C440810
:10204000E0DCD9D3D2CECBCAC9C7CADF0F11050194
:10205000F0D4DDE7EEF2FBFE00070D0F0F111B4D74
:102060006E69625A480CE3DDDAD6D1D1CDCBCBC94B
:10207000C9D3FF130902F8DADAE5EBF1F7FF00053F
:102080000D0D0D101B496E69635C4810E4E0DBD850
:10209000D4CFCECBCACBC9CDF3160A0300E0D9E327
:1020A000EBF0F5FB0003090F0D0E17476E68645C3B
:1020B0004C10E6E2DCD9D5D1CFCECACACBCAE715DF
:1020C0000E0302E8D6E1E7EFF5FBFF03070D100D65
:1020D000153F6E69625D4C14E8E3E0DAD8D3D0CDE9
:1020E000CDCBCCCDDD0D110603F3D7DFE9EDF3FA4F
:1020F000FE02070D100F133F6B6A615C501AECE390
:10210000E1DDD8D6D1CFCECDCBCDD5FF160902FC9F
:10211000E0DBE7EDF1FAFD00050B0F0F113D6969FA
:10212000645C5020EDE7E2DFD9D5D4D0CECDCCCC65
:10213000D0F5150D0100E5DAE4EBF0F5FDFF030A3B
:102140000D0F113B6769645C5120F0E7E3DFDCD8D9
:10215000D4D3CECDCECDCEE7130F0601ECD9E1EB33
:10216000EFF5FB0001070E0E1137646A625C502424
:10217000F2E9E6E1DDDAD5D3D1CECFCFCEDF091259
:102180000703F4DCE1E8EFF3F9FF02050D1010336B
:102190005F6A625CFF150A0300E0DEE7EDF3F7FD1E
:1021A00001050910112F5E68645C5228F8EDE7E51F
:1021B000E0DCD9D5D3D1D0CED1D1EF150C0301E8D5
:1021C000DBE6ECF0F7FB0003080D102F5B66645EA6
:1021D0005430FAEDE9E5E3DDDBD8D3D2D1CFCFD16E
:1021E000E70F110501F0DAE3ECEFF5FCFF03070B55
:1021F0000F2D5764625C543000F0EBE7E3E0DBD96D
:10220000D6D2D2D1D0D2DF07120901F8DEE1EAF04E
:10221000F3FBFF01060B0F2B5364605D563000EE9D
:10222000EDE9E5E2DEDAD8D5D1D2D1D1D7FB140C75
:1022300003FCE5DFE7EFF3F9FF01030A0F27536221
:10224000605C553002F0ECEBE5E2E0DBD7D6D4D1B0
:10225000D3D1D3EF130F0500EADDE5EDF3F6FD0171
:1022600003070D2751615F5D563404F2EFEAE8E39E
:10227000E0DDD9D7D4D2D1D3D3E70F100701F2DDF7
:10228000E5EBF1F6FA0003050B274F605D5B58386C
:1022900008F3F0EDE8E6E1DFDBD8D7D4D3D3D3DD24
:1022A000FF140903F9E1E1EBEFF5FBFF0305000083
:1022B0000000FD0108F205EDF502E30310E60E044F
:1022C000D7FF2C181B2A38C9C7EDD8B5C7F6D7F5E4
:1022D000000000005C3924E5DFDECFC7C2C3B5B122
:1022E000ADAF9F9C94808080808080809BD3507F06
:1022F0007F7F000000007F7F7F7F7B77726E6A6543
:10230000605C57524D48433E39342E29241F19151D
:102310000F0A0500FBF5F0EBE6E1DCD7D2CDC9C42E
:10232000BFBBB6B2ADA9A5A09D9894918D8A8683B6
:10233000828181818181818181818181818181818C
:10234000818181818181818181818181818181817D
:10235000818181818181818181818181818181816D
:102360008181818181936F7F7F7F7F7F7F7F7F7F6F
:102370007F7F7F7F7F7F7F7F7F7F7F7F7D7A767389
:102380006F6C6965625E5B5854504C4845413D39FD
:1023900035312D2925211D1A16130F0C080401FDB6
:1023A000F9F6F3F0EDEAE7E4E1DEDCD9D6D3D1CFFC
:1023B000CCCAC8C6C4C2C0BEBCBBB9B8B6B5B4B23C
:1023C000B1B0AFAE000000000000000912C9808368
:1023D00086E7485869533DDF828282BCF6122F336C
:1023E0003812ED1C4B5056514CFFB299808081CE73
:1023F0001C426967654A304B663C13C98080809EE9
:10240000BCE106C88BAED2165A6169635D360F0215
:10241000F5EDE6D9CCBEB0B3B7024D4A473625F04C
:10242000BB9D8095AAAFB4AAA0C0E00F3F546948F5
:102430002700D9F613273B3632E395ABC20242544C
:1024400067533FF7AFBCCAE1F8E5D3BFAC9986C686
:10245000072340393310EED0B3D2F2E8DECAB7CB4F
:10246000E0FF1E42675B4F3F2F2C29221B1E21F8E5
:10247000CFDAE6F80B0A0A0908DBAFB2B6C0CAD059
:10248000D7D3D0BCA8DA0C16201204FBF3F7FB2339
:102490004C3F3310EDEEEFF70000000000000000AD
:1024A0000000000000001F0CFBDCE8C1B3BDC8DE6B
:1024B000DB3C38435D544B36281B04DDCBA4A39F83
:1024C000A09DB1C7E1FC111F3C5F6E767469675136
:1024D000391AFEE1C6AE9F968A878C97A9B8CCE2DE
:1024E000F611243C4D4F67686B675B5044322111F5
:1024F00006F8ECE5D8D2C8C0BAB4B0AEAEB1B5BD3E
:10250000C2CBD5E2EDFB0C182C3C4B5B666E7274B3
:102510006E66594B392711FDE8D4C1B1A39A949244
:10252000949BA3AFBDCCDCECFB0A18222D353B3FBE
:10253000403E3B363029211A130B05FEF9F5F1EF29
:10254000EDEDEDEEEEEFF0F1000011241FBECFE552
:10255000D8E0DEBFCDBF10E0A0E6B0E0E0EBF5E3F1
:1025600002C005900D92A438B107D9F713E0A4E892
:10257000B0E001C01D92A032B107E1F70E94AA1499
:102580000C94D61A0C940000DF93CF9300D000D0A7
:10259000CDB7DEB785E294EDA0E0B0E089839A8301
:1025A000AB83BC8389819A81AB81BC812CEA31E009
:1025B00040E050E0BC01CD010E94951ADC01CB0146
:1025C0008093870090938800A0938900B0938A003D
:1025D0000F900F900F900F90CF91DF9108958F92F1
:1025E0009F92AF92BF92CF92DF92EF92FF920F93A2
:1025F0001F93DF93CF93CDB7DEB728970FB6F8942C
:10260000DEBF0FBECDBF1E821D821C8279C18C81B0
:10261000282F30E0C901880F991F820F931F880F60
:10262000991F880F991F880F991F821B930BFC011C
:10263000EF55FF4F8081882309F45FC18C81282FDB
:1026400030E0C901880F991F820F931F880F991FCF
:10265000880F991F880F991F821B930BFC01E4566A
:10266000FF4F8081882309F461C08C81282F30E0DE
:10267000C901880F991F820F931F880F991F880F18
:10268000991F880F991F821B930BFC01E356FF4F84
:1026900040815181628173818C81282F30E0C90192
:1026A000880F991F820F931F880F991F880F991FFA
:1026B000880F991F821B930BFC01E856FF4F808106
:1026C0009181A281B38184179507A607B70770F59A
:1026D0008C81482F50E08C81282F30E0C901880F71
:1026E000991F820F931F880F991F880F991F880FBA
:1026F000991F821B930BFC01EC56FF4F0081118147
:1027000022813381CA01880F991F840F951F880F7A
:10271000991F880F991F880F991F841B950BFC0127
:10272000E356FF4F00831183228333838C81282F4C
:1027300030E0C901880F991F820F931F880F991FDE
:10274000880F991F880F991F821B930BFC01E3567A
:10275000FF4F40815181628173818C81282F30E04D
:10276000C901880F991F820F931F880F991F880F27
:10277000991F880F991F821B930BFC01E357FF4F92
:1027800080819181A281B381481759076A077B072D
:1027900008F09FC08C81282F30E0C901880F991F55
:1027A000820F931F880F991F880F991F880F991FF9
:1027B000821B930BFC01E557FF4F408151818C81B7
:1027C000282F30E0C901880F991F820F931F880FAF
:1027D000991F880F991F880F991F821B930BFC016B
:1027E000E356FF4F80819181A281B381CD01AA2759
:1027F000BB27840F951F8C5A9F4F9B838A83EA8146
:10280000FB81849189838981282F332727FD309587
:102810008D819E81820F931F9E838D838C81C82E14
:10282000DD248C81282F30E0C901880F991F820F89
:10283000931F880F991F880F991F880F991F821B5C
:10284000930BFC01E356FF4F80809180A280B38000
:10285000E0908700F09088000091890010918A0034
:102860008C81282F30E0C901880F991F820F931F98
:10287000880F991F880F991F880F991F821B930B30
:10288000FC01EF56FF4F808191819C0140E050E0B8
:10289000C801B7010E94B41ADA01C901A501940167
:1028A000280F391F4A1F5B1FC601880F991F8C0D07
:1028B0009D1D880F991F880F991F880F991F8C19CC
:1028C0009D09FC01E356FF4F2083318342835383EC
:1028D00014C08C81282F30E0C901880F991F820F06
:1028E000931F880F991F880F991F880F991F821BAC
:1028F000930BFC01EF55FF4F10828C818F5F8C830F
:102900008C81843008F483CE8D819E8198878F835B
:102910008F81988599232CF48F81988503969887C9
:102920008F838F819885959587959595879528961E
:102930000FB6F894DEBF0FBECDBFCF91DF911F91D0
:102940000F91FF90EF90DF90CF90BF90AF909F904E
:102950008F900895DF93CF93CDB7DEB70E94701AA2
:102960000E94C412A7E3B0E0E7E3F0E08081886052
:102970008C93A3E5B0E0E3E5F0E0808189668C9379
:10298000ECE5F0E080E88083A9E5B0E0E9E5F0E07F
:10299000808184608C93EEE4F0E082E08083ECE45C
:1029A000F0E087E39FEF918380837894FFCF1F92BD
:1029B0000F920FB60F9211240F931F932F933F93F3
:1029C0004F935F936F937F938F939F93AF93BF9337
:1029D000EF93FF93DF93CF93CDB7DEB7ECE4F0E056
:1029E00087E39FEF918380830CE510E00E94EF1254
:1029F0008058F80180838091600090916100009779
:102A000051F0809160009091610001979093610076
:102A10008093600008C088EC90E090936100809300
:102A200060000E94C017CF91DF91FF91EF91BF919D
:102A3000AF919F918F917F916F915F914F913F9156
:102A40002F911F910F910F900FBE0F901F9018950F
:102A50000F931F93DF93CF9300D000D0CDB7DEB795
:102A600089836A835C834B838981882F90E0880FF8
:102A7000991F880F991F880F991FFC01E951FF4F7B
:102A80008A8180838981682F70E08B819C819C0181
:102A900040E050E0CB01880F991F880F991F880FE5
:102AA000991FFC01E851FF4F2083318342835383F8
:102AB0008981882F90E0880F991F880F991F880FB0
:102AC000991FFC01E451FF4F10828981482F50E08B
:102AD0008A81282F30E0C901880F991F820F931F28
:102AE000880F991F880F991F820F931FFC01ED5EBD
:102AF000FE4F2081318180911B0390911C03A09196
:102B00001D03B0911E03280F391FCA01880F991F9A
:102B1000840F951F880F991F880F991F880F991F81
:102B2000841B950BFC01E557FF4F3183208389817E
:102B3000482F50E08A81282F30E0C901880F991F63
:102B4000820F931F880F991F880F991F820F931F61
:102B5000FC01E85FFE4F80819181CC01A0E0B0E0F4
:102B60009C0111270027CA01880F991F840F951F08
:102B7000880F991F880F991F880F991F841B950B29
:102B8000FC01E357FF4F0083118322833383898144
:102B9000282F30E0C901880F991F820F931F880FDB
:102BA000991F880F991F880F991F821B930BFC0197
:102BB000EF56FF4F8B819C81918380838981282FE1
:102BC00030E0C901880F991F820F931F880F991F4A
:102BD000880F991F880F991F821B930BFC01ED56DC
:102BE000FF4F80E480838981482F50E08A81282F1D
:102BF00030E0C901880F991F820F931F880F991F1A
:102C0000880F991F820F931FFC01E35FFE4F8081A5
:102C10009181CC01A0E0B0E09C0111270027CA01FE
:102C2000880F991F840F951F880F991F880F991F70
:102C3000880F991F841B950BFC01EC56FF4F0083F6
:102C40001183228333838981482F50E08A81282F82
:102C500030E0C901880F991F820F931F880F991FB9
:102C6000880F991F820F931FFC01EF5EFE4F80813A
:102C70009181CC01A0E0B0E09C0111270027CA019E
:102C8000880F991F840F951F880F991F880F991F10
:102C9000880F991F841B950BFC01E856FF4F00839A
:102CA0001183228333838981482F50E08A81282F22
:102CB00030E0C901880F991F820F931F880F991F59
:102CC000880F991F820F931FFC01E45FFE4F208144
:102CD000CA01880F991F840F951F880F991F880FAD
:102CE000991F880F991F841B950BFC01E456FF4F19
:102CF00020838981282F30E0C901880F991F820F16
:102D0000931F880F991F880F991F880F991F821B87
:102D1000930BFC01E356FF4F108211821282138243
:102D20008981282F30E0C901880F991F820F931FD6
:102D3000880F991F880F991F880F991F821B930B6B
:102D4000FC01EF55FF4F81E080830F900F900F90B3
:102D50000F90CF91DF911F910F910895DF93CF9343
:102D6000CDB7DEB7809185008F5F8093850080911D
:102D70008500803479F4809184008F5F8093840093
:102D80009091840080911F03981710F01092840096
:102D900010928500CF91DF910895DF93CF93CDB747
:102DA000DEB769970FB6F894DEBF0FBECDBF1F8A9E
:102DB0001F8AC8C080918400882F90E0FC01E556EE
:102DC000FD4F8081882F90E09C0100243695279547
:102DD0000794369527950794322F202D80918500F2
:102DE000882F90E0820F931F9C01220F331F220F28
:102DF000331F8F89882F90E0820F931F815F9E4F32
:102E0000880F991F880F991FAA2797FDA095BA2FA1
:102E10008B8B9C8BAD8BBE8B8B899C8902968C5A3D
:102E20009F4F9C878B87EB85FC8584918A878A8559
:102E30008A8B8A8982958F70898B8B899C898C5A21
:102E40009F4F99878887E885F98584918F838F8143
:102E5000882F90E0382F22278B899C8901968C5AE5
:102E60009F4F9E838D83ED81FE8184918C838C8125
:102E7000882F90E0820F931F988B8F878B899C8976
:102E800003968C5A9F4F9B838A83EA81FB818491AE
:102E9000898389818E878A898F708D878989882324
:102EA00051F08989982F91502F8538898F89692F02
:102EB000A9010E9428158D85282F30E0398F288F91
:102EC000888D998D009731F0288D398D2F303105FF
:102ED00091F135C08F89882F90E0880F991F880F56
:102EE000991F880F991FFC01E451FF4F10828F89B1
:102EF000282F30E08E85482F42954F70C901880FEA
:102F0000991F880F991F880F991FFC01E351FF4FEC
:102F100040838F89282F30E08E85482F4F70C9015C
:102F2000880F991F880F991F880F991FFC01E25184
:102F3000FF4F408304C08E858F70809362008F891D
:102F40008F5F8F8B8F89843008F434CF69960FB6EA
:102F5000F894DEBF0FBECDBFCF91DF910895DF9310
:102F6000CF930F92CDB7DEB7198203C089818F5FEF
:102F7000898389818430D0F30F90CF91DF910895B8
:102F8000DF93CF93CDB7DEB790918600809162003A
:102F9000981740F40E94AF17809186008F5F80934E
:102FA000860006C0109286000E94AE160E94CD16C2
:102FB000CF91DF910895DF93CF93CDB7DEB7A4977C
:102FC0000FB6F894DEBF0FBECDBF1E8E1F8E18A2A7
:102FD00019A21D8EFCC18D8D282F30E04E8D5F8D86
:102FE000C901880F991F820F931F880F991F880F9F
:102FF000991F820F931FFC01ED5EFE4F51834083AA
:103000008D8D282F30E0C901880F991F820F931FE3
:103010009C01220F331F220F331F820F931F880F33
:10302000991F4496AA2797FDA095BA2F898F9A8F4A
:10303000AB8FBC8F8D8D282F30E0898D9A8D469671
:103040008C5A9F4F988F8F8BEF89F88D84918E8B40
:103050008E89882F90E0982F8827990FAC01C9019D
:10306000880F991F820F931F880F991F880F991F30
:10307000820F931FFC01E85FFE4F518340838D8DCB
:10308000482F50E08D8D282F30E0C901880F991FFF
:10309000820F931F880F991F880F991F820F931F0C
:1030A000FC01E85FFE4F20813181898D9A8D479622
:1030B0008C5A9F4F9D8B8C8BEC89FD8984918B8BD7
:1030C0008B89882F90E0880F991F280F391FCA011C
:1030D000880F991F840F951F880F991F880F991FBC
:1030E000840F951FFC01E85FFE4F318320838D8D97
:1030F000282F30E0C901880F991F820F931F880F76
:10310000991F880F991F820F931FFC01E85FFE4FE4
:10311000808191819C0140E050E08E8D9F8DA8A11F
:10312000B9A1820F931FA41FB51F8E8F9F8FA8A3D5
:10313000B9A38D8D282F30E0898D9A8D48968C5AB1
:103140009F4F9A8B898BE989FA898491888B88892A
:10315000482FC901880F991F820F931F880F991F4D
:10316000880F991F820F931FFC01E65FFE4F40837B
:103170008D8D282F30E0898D9A8D49968C5A9F4FDE
:103180009F878E87EE85FF8584918D874D85C90148
:10319000880F991F820F931F880F991F880F991FFF
:1031A000820F931FFC01E55FFE4F40838D8D282F1A
:1031B00030E0898D9A8D4A968C5A9F4F9C878B87D9
:1031C000EB85FC8584918A878A85882F90E0982FEB
:1031D0008827990FAC01C901880F991F820F931F8F
:1031E000880F991F880F991F820F931FFC01E35FBF
:1031F000FE4F518340838D8D482F50E08D8D282FB9
:1032000030E0C901880F991F820F931F880F991F03
:10321000880F991F820F931FFC01E35FFE4F2081EF
:103220003181898D9A8D4B968C5A9F4F99878887CB
:10323000E885F98584918F838F81882F90E0880FAE
:10324000991F280F391FCA01880F991F840F951FD6
:10325000880F991F880F991F840F951FFC01E35F4A
:10326000FE4F318320838D8D282F30E0898D9A8DFC
:103270004C968C5A9F4F9E838D83ED81FE81849165
:103280008C838C81482F50E0C901880F991F820FD1
:10329000931F880F991F880F991F820F931FFC019E
:1032A000E15FFE4F518340838D8D282F30E0898D63
:1032B0009A8D4D968C5A9F4F9B838A83EA81FB811E
:1032C000849189838981482F50E0C901880F991F13
:1032D000820F931F880F991F880F991F820F931FCA
:1032E000FC01E15FFE4F518340838D8D282F30E03C
:1032F0003CA32BA38D8D282F30E0C901880F991F87
:10330000820F931F880F991F880F991F820F931F99
:10331000FC01E15FFE4F808191811AA2833091050B
:1033200010F031E03AA38BA19CA1880F991F2BA12B
:103330003CA1820F931F880F991F880F991F2BA103
:103340003CA1820F931FFC01E45FFE4F3AA1308342
:103350008D8D482F50E08D8D282F30E0C901880FCA
:10336000991F820F931F880F991F880F991F820F33
:10337000931FFC01E35FFE4F608171818D8D282FCB
:1033800030E0C901880F991F820F931F880F991F82
:10339000880F991F820F931FFC01E15FFE4F808110
:1033A00091819B01280F391FCA01880F991F840F33
:1033B000951F880F991F880F991F840F951FFC0177
:1033C000EF5EFE4F318320838D8D8F5F8D8F8D8DCE
:1033D0008F3108F400CEA4960FB6F894DEBF0FBE6E
:1033E000CDBFCF91DF910895DF93CF93CDB7DEB7F7
:1033F0002A970FB6F894DEBF0FBECDBF1A8688EBB2
:1034000093E0A0E0B0E08E839F83A887B9871D82F8
:103410001AC08D81282F30E08E819F81820F931FEB
:103420008C5A9F4F9B838A83EA81FB818491898395
:1034300089818C839C818A85891710F48C818A8785
:103440008D818F5F8D838D8188231CF78A852A96D5
:103450000FB6F894DEBF0FBECDBFCF91DF910895B8
:10346000DF93CF93CDB7DEB727970FB6F894DEBFC3
:103470000FBECDBF0E94F4198F5F809307018AE0D1
:1034800094E09E838D83ED81FE8184918C838C8179
:1034900080931F031F8218C08F81282F30E08F81F7
:1034A000882F90E088549C4F8C5A9F4F9B838A832F
:1034B000EA81FB81849189838981F901E556FD4F79
:1034C00080838F818F5F8F838F8188232CF727964E
:1034D0000FB6F894DEBF0FBECDBFCF91DF91089538
:1034E000DF93CF93CDB7DEB70E94DB170E94301A6F
:1034F00080910701882F90E0982F8827990F990FC6
:10350000845C9B4FAA2797FDA095BA2F80931B033D
:1035100090931C03A0931D03B0931E030E94CD162D
:103520000E94AF17CF91DF910895629FD001739FE2
:10353000F001829FE00DF11D649FE00DF11D929F4F
:10354000F00D839FF00D749FF00D659FF00D99278E
:10355000729FB00DE11DF91F639FB00DE11DF91FB2
:10356000BD01CF0111240895A1E21A2EAA1BBB1B95
:10357000FD010DC0AA1FBB1FEE1FFF1FA217B3073F
:10358000E407F50720F0A21BB30BE40BF50B661F55
:10359000771F881F991F1A9469F760957095809519
:1035A00090959B01AC01BD01CF010895F894FFCF28
:1035B000C8000600010F011F013001420156016AD7
:1035C000017F019601AE01C801E30100021E023E27
:0435D0000260020093
:00000001FF
